:020000040000FA
:030000000200C734
:03002B0002058843
:03007B000205502B
:10008300020A1800000080FBE490F10078D67901A1
:100093008002F0A3D8FCD9FA7AD57BF19000D67808
:1000A3003B79018015E493A3AD82AE838A828B836F
:1000B300F0A3AA82AB838D828E83D8E9D9E7120598
:1000C3009B12008675D0007581BF7510007511F104
:1000D30002008B5455524E4F4E5F005455524E4FB3
:1000E3004646005354415455535F0041434B5F0010
:1000F300D5F1DDF1E5F1EDF1FFFFFFFF0032506EC9
:10010300FF000000050000000A00000003080808C3
:10011300EAC0E0EBC0E086F0E7A4FA180986F0E74E
:10012300A42AFA180986F0E7A42AFA180986F0E740
:10013300A42AFA1986F0E7A4FBE5F02AFA1908863F
:10014300F0E7A42BFBE5F03AFA190886F0E7A42BB5
:10015300FBE5F03AFA18180986F0E7A4C5F02BFB83
:10016300E43AFA1908E7C5F0C6A426F6E5F03BFB26
:10017300E43AFA1886F0E7A4F6E5F00826F6E43B3D
:1001830008F6E43A08F6D0E0FBD0E0FA22E4CFC068
:10019300E0E4CEC0E0E4CDC0E0E4CCC0E075F02004
:1001A300E626F608E633F608E633F608E633F618ED
:1001B3001818EC33FCED33FDEE33FEEF33FFC3ECE5
:1001C3009709ED9709EE9709EF97191919400FFF52
:1001D300EC97FC09ED97FD09EE97FE191906D5F08A
:1001E300BFECF709EDF709EEF709EFF7191919D085
:1001F300E0FCD0E0FDD0E0FED0E0FF22601708086D
:1002030008C6A2E713C618C613C618C613C618C66F
:1002130013C6D5E0E922E026F608A3E036F608A3E4
:10022300E036F608A3E036F622E0F608A3E0F60887
:10023300A3E0F608A3E0F622E6F008A3E6F008A39D
:10024300E6F008A3E6F022CAC0E0E6F0A308DAFA73
:10025300D0E0FA22CAC0E0E0A3C582CCC582C58340
:10026300CDC583F0A3C582CCC582C583CDC583DA52
:10027300E6D0E0CA22C3E498F8E499F91202B980FF
:1002830026C3E49AFAE49BFBE920E7E91202B9E406
:1002930098F8E499F922C3E498F8E499F91202B9B9
:1002A300E498F8E499F9C3E49AFAE49BFB22EB207F
:1002B300E7CFE920E7E0B90010BB0008E88AF08443
:1002C300F8AAF022E4FBC8FA22EB70227B10C833B1
:1002D300C8C933C9335007C39AC3DBF280069A50A7
:1002E300012ADBEAC833F4C8C933F4C9FA2275F02A
:1002F30008E4C833C8C933C933C99AC99B5004C970
:100303002AC93BD5F0ECFBC833F4C8E4C9FA226030
:100313000C08C6C313C618C613C6D5E0F4222510AD
:1003230010AF08F510400C15118008F510400215A8
:1003330011D2AF2200C0D0251010AF08F510500C19
:1003430005118008F51050020511D2AFD0D0222537
:1003530010F58210AF08F510400C15118008F51048
:1003630040021511D2AF851183222510F582E435A1
:1003730011F583222510C582C0E0E51134FFC58342
:10038300C0E0E510C3958224F910AF088583118579
:1003930082108008858311858210D2AFCEF0A3E549
:1003A30020F0A37808E608F0A3DEFAEFF0A3E581D6
:1003B30024FBF8E608F0A3E608F0A30808E608F033
:1003C300A3E608F0A315811581D0E0FED0E0F8156F
:1003D300811581E8C0E0EEC0E0228511838510829B
:1003E300E0A3FEE0A3F5207808E0A3F608DFFAE037
:1003F300A3FFE0A3C0E0E0A3C0E0E0A3C0E0E0A36C
:10040300C0E010AF088582108583118008858210B3
:10041300858311D2AFD083D08222C0D02510C5826C
:10042300C0E0E51134FFC583C0E0E510C395822425
:10043300F310AF08858311858210800885831185A9
:100443008210D2AFC8F0A3E9F0A3EAF0A3EBF0A3C4
:100453007908E709F0A3D8FAECF0A3EDF0A3EEF0E6
:10046300A3EFF0A3D0E0F0A3D0E0F0A3D0E0F0A39B
:10047300E520F0A3E5F0F0A322851183851082E047
:10048300C0E0A3E0F9A3E0FAA3E0FBA37808E0F659
:1004930008A3DFFAE0FCA3E0FDA3E0FEA3E0FFA3D3
:1004A300E0C0E0A3E0C0E0A3E0F5D0A3E0F520A323
:1004B300E0A3F5F010AF08858311858210800885CD
:1004C3008311858210D2AFD082D083D0E0F8D0E000
:1004D3003274028000C0E0F404120352D0E012022E
:1004E3004A22C082C08374FE12032112051812052A
:1004F3003E85108285118374AAF0A37400F08510E1
:1005030082851183E07004C2AF80FE740212033748
:10051300D083D082222275F00DEAA4F853CBEFC228
:10052300D843CB0488CDE5CB54FC4402F5CB43CB75
:1005330010A2D850FC53CBEFC2D8221205440205B7
:100543004F43FE0143FE02C290C2912222C0E0C08B
:10055300D0C082C083C2AF7404658A700690F10074
:100563007401F07408658A700690F1007402F075E6
:100573008A00C2EB539AEF53BEFCD2AFD083D08232
:10058300D0D0D0E032C0D0C2AFC2C775A102C2ADD5
:1005930053BEFCD2AFD0D0321204E57E007F00C33D
:1005A300EE9403EF94005048EEF8EFF9E875F0028B
:1005B300A4C8AAF075F000A42AFA75F002E9A42AE7
:1005C300F974F228F58274F139F583E0FAA3E0FBBC
:1005D3001212188A088B0974076508700474006581
:1005E300096006D290D29180FE0EEE70B20F80AFFA
:1005F3001206B3120B047900120D6A120C05D29085
:10060300D2917AE87B03120CBEC290C291120FFC06
:1006130080FE74F11203778A0E8B0F8C0A8D0BC345
:10062300E50A9409E50B9400500479038067750883
:10063300037E007F00C3EE9403EF94005055750CC6
:1006430007750D00780C1204D4AC0EAD0FEEF8EF65
:10065300F9E875F002A4C8AAF075F000A42AFA75A7
:10066300F002E9A42AF974F228F58274F139F583CA
:10067300E0FAA3E0FB1210C174021203378A0C8B59
:100683000DE50C450D7005EEF50880070EEE70A51F
:100693000F80A2A9087F080203DDC082C0837A020B
:1006A3007BF1120A0390F1017401F0D083D082220E
:1006B30074F112037774F41203217508407509006D
:1006C30078081204D47C007D007A437BF11211EE8A
:1006D300740212033753BEFBE5BEA2E650FA53C6BB
:1006E300BF43BE04788779F1E4C9F8E8F5D575D43A
:1006F3008790DF13743CF090DF147414F090DF02E2
:10070300743DF090DF047405F090DF2E74C0F09018
:10071300DF257409F090DF077406F090DF0874009A
:10072300F090DF097421F090DF0A7465F090DF0B1D
:10073300746AF090DF0C74F6F090DF0D7483F09020
:10074300DF0E7413F090DF0F7422F090DF1074F853
:10075300F090DF117415F090DF157416F090DF162A
:10076300746CF090DF177403F090DF187440F0900E
:10077300DF197491F090DF1A7456F090DF1B741038
:10078300F090DF1C74E9F090DF1D742AF090DF1EF7
:100793007400F090DF1F741FF090DF237488F090D3
:1007A300DF247431F090F1427402F07900120D6A83
:1007B3007E007F0075E10275081475090590DF3C22
:1007C300E0545070237A407B00120C74E50824C077
:1007D300F508E50934FFF509C3E5089401E5099433
:1007E30000A2D265D03350D57800E8C39410501AD4
:1007F300EE2EFEEF33FF90DF3AE0A2E0E433FA7B24
:1008030000EE4AFEEF4BFF0880E074804EFE74005A
:100813004FFFEEF5BCEEF8EFF9E4C9F8E8F5BC12CA
:100823000C2B8510828511837483F0A37401F074FB
:100833000212036D7416F0A37400F0851082851103
:1008430083E0F50CA3E0F50DE4F50EF50F750880D4
:100853007509BA750A8C750B01740212036DE0F801
:10086300A3E0F9E878081201FF780C790812011067
:10087300740812036D780C12023B740412036D7436
:1008830000F0A37473F0A37455F0A37400F0740420
:1008930012036D780812022C740812036D780C127F
:1008A300022C7808790C12019090F2067808120253
:1008B3001990F20A780C12022C7808790C12019024
:1008C300E5082432F8E43509F990F183E8F0A3E967
:1008D300F090F183E0F508A3E0F5097405780812B8
:1008E3000312E50875F0E8A4C508A8F075F003A4A1
:1008F30028F875F0E8E509A428F509E50824FAF8CD
:10090300E43509F990F185E8F0A3E9F0439A01D2BF
:10091300AF740C1203377F080203DD74F3120377FD
:100923008A0C8B0D890A75080090F142E06401700E
:1009330004C2AF80FE120C2B7582877583F1A80C5D
:10094300A90DE4C9F8E8C0E0D0E0F0A3E50CC0E0ED
:10095300D0E0F0A374DFF0A374D9F0A37420F0A364
:100963007440F0A37413F0A37441F0E50A701143CB
:10097300D60175E103E5E9A2E450FA53E9EF806B90
:100983007401650A6004C2AF80FE75090443D60191
:1009930075E10290DF3BE0640D70F87E147F0590F3
:1009A300DF3CE05450701D7A407B00120C74EE243F
:1009B300C0FEEF34FFFFC3EE9401EF9400A2D265B3
:1009C300D03350DB75E10390DF3BE0640D600BE552
:1009D300E9A2E450FA53E9EF8011E509600A120C29
:1009E3002B120CE1150980A5750801120C2B90F14F
:1009F30042E064037003120B49A9087F060203DD7A
:100A0300C082C08390F143EAFCEBFD7440120257AD
:100A1300D083D08222C0E074F112041D90F142E031
:100A230064036004C2AF80FEE5E9A2E45033E5E964
:100A3300A2E6502D53E9EF53E9BF539BFC120C2B55
:100A430075083E75090078081204D47C007D007A8D
:100A5300437BF11211EE7402120337120B49020A9F
:100A6300FF53E9EF539BFC90F143E02401FF75082A
:100A73000275090078081204D4EFF879007443284A
:100A8300FC74F139FD7A817BF11211557402120362
:100A93003790F143E0FE90F182E0A2E75040EEF898
:100AA3007900E82401F8500109C3E8943FE9940070
:100AB300A2D265D0335027EEC3940840217A447BF9
:100AC300F1120DA1E9701790F181E0F9120D09E916
:100AD30090F181F090F182E0C2E7F012069D750873
:100AE3003E75090078081204D47C007D007A437BAC
:100AF300F11211EE740212033743D6017F0202048E
:100B03007CC082C083E5C6A2E65004C2AF80FE90DB
:100B1300F142E06401702390DF1C74E9F090DF1D63
:100B2300742AF090DF1E7400F090F1427402F075A5
:100B3300E10490DF3BE0640170F8D083D08222436C
:100B4300B404E5BCF92274F71203777E877FF18E34
:100B5300828F8374DFF08E828F83A3AE82AF838E06
:100B6300828F8374D9F08E828F83A3AE82AF837812
:100B73004379F1E4C9F8E8C0E08E828F83D0E0F0D6
:100B83008E828F83A3AE82AF838E828F837443F072
:100B93008E828F83A3AE82AF838E828F837480F025
:100BA3008E828F83A3AE82AF838E828F837440F055
:100BB3008E828F83A3AE82AF838E828F837413F072
:100BC3008E828F83A3AE82AF838E828F837411F064
:100BD30075D68175083E75090078081204D47C0027
:100BE3007D007A437BF11211EE740212033743D670
:100BF30001539BFC53E9EF75E1024391107F02021D
:100C030003DDC082C08390F142E064017004C2AF8F
:100C130080FE90F142E06403600990F1427403F0B6
:100C2300120B49D083D08222C082C0835391EF75C7
:100C3300E10490DF3BE0640170F875D68153D1FE87
:100C4300539BFC53E9EFD083D08222C082C08390B0
:100C5300F142E064017004C2AF80FE90F142E064AF
:100C6300037009120C2B90F1427402F0D083D082EE
:100C73002274F31203778A088B0985080C85090D02
:100C83007404780C120312AE0CAF0DE5084509602D
:100C930025A2AFE433F50AC2AF7A107B001205191F
:100CA300E50AA2E092AFEEF8EFF9E824FFFEE9349B
:100CB300FFFFE84970DB7F060203DD74F812037758
:100CC300EAFEEBFFEE4F60117AF47B01120C74EE37
:100CD30024FFFEEF34FFFF80EB7F010203DD74F896
:100CE300120377120B42E9540F2401FF7E00EEC377
:100CF3009F500E90F185E0FAA3E0FB120C740E8076
:100D0300ED7F010203DD74F7120377E9FEEEC3946E
:100D1300804027EEF87900E82400F8E934FFF97AF7
:100D2300027B001202B188088909E50824B7F8E5B7
:100D33000934FFF9E8FCE9FD801475F002EE84F84C
:100D43007900E824B7F8E934FFF9E8FCE9FDC3ECDE
:100D53009480ED94FFA2D265D03350047C807DFF54
:100D6300ECF97F020203DD74F8120377E9FEEEC3A8
:100D730094044004C2AF80FE120C2BEEF879007489
:100D8300FE28F58274F139F583E090DF06F090F1E7
:100D930042E064037003120B497F010203DD74F721
:100DA30012037790F18FE070047900805F7C007804
:100DB300007D00EDC394045043EDF508750900EA86
:100DC3002508F582EB3509F583E0FEEDF508750995
:100DD3000074022508F58274F23509F583E06E701C
:100DE300010CEDF50875090074FA2508F58274F114
:100DF3003509F583E06E7001080D80B774046860EF
:100E03000574046C70047900800279017F02020387
:100E1300DD74F3120377120C4E90F1017400F0901D
:100E2300F102E024F8F50A75080B7509F1E50AFCEF
:100E33007D00AA08AB09120615E990F20EF090F2B4
:100E43000EE064037008120C057900020EE18508B8
:100E530082850983A3A3A3A3A3A3A3E090F1D0F066
:100E6300850882850983A3A3A3A3A3A3A3A3E090D7
:100E7300F1D2F090F190740EF07E997FF1750C042D
:100E8300750D00780C1204D490F1F8E0FCA3E0FD9A
:100E9300EEFAEFFB12110F740212033790F1D0E058
:100EA300C0E08E828F83A3A3A3A3D0E0F090F1D3FD
:100EB300E0F8A3E0F9E8C0E08E828F83A3A3A3A3A5
:100EC300A3D0E0F079017A907BF112091EE9D29068
:100ED3007AFA7B00120CBEC290120C0579017F06D0
:100EE3000203DDC082C08390F1D0E0F890F1D1E03D
:100EF30068606D90F20EE0701C90F1D2E064317086
:100F030006D283C282803090F1D2E064327028D25C
:100F130084C281802290F20EE06401704390F1D28A
:100F2300E064317006C283D282800C90F1D2E06417
:100F3300327004C284D2817AB87B0B120CBE90F15A
:100F4300D2E064317006C283C282800C90F1D2E099
:100F530064327004C284C28190F1D0E090F1D1F088
:100F6300D083D082227A707B17020CBEC082C083EA
:100F730043B443E5B4A2E750FAE5BAF87900E8547C
:100F8300F0F8E95400F990F1D3E8F0A3E9F0A9BB34
:100F9300E9F9E4F890F1D3E048F0A3E049F090F1E7
:100FA300D3E054FFF0A3E0540FF090F1D3E0F8A3A3
:100FB300E0F9E875F006A4C8AAF075F000A42AFACF
:100FC30075F006E9A42AF97A647B001202B990F15C
:100FD300D3E8F0A3E9F0D083D0822243FD0843FD98
:100FE3000443FD1043FD02C283C282C284C2814313
:100FF300F28043B43375B5B72274F112037774FEEC
:10100300120321120FDE120F6F120C05750A007501
:101013000B00750E00750F00851082851183740017
:10102300F0A37400F07508007509007E007F00903E
:10103300F101E06004120E14E9050AE50A700205E5
:101043000BA80AA90B7A007BFF1202B98A0C8B0D3D
:10105300E50C450D7004D2F08002C2F0A2F0E43337
:10106300F508750900E508450960C490F20EE064CF
:10107300036016120EE690F20E7403F0851082855B
:1010830011837400F0A37400F0120F6875080075E3
:101093000900050EE50E7002050FE50E541F7004DE
:1010A300D2F08002C2F0A2F0E433FE7F00EE4F7074
:1010B30003021032120F6F7E007F0002103274F8A9
:1010C300120377740812036DE0F8A3E08015A3AA56
:1010D30082AB838C828D83A3AC82AD83E824FF181B
:1010E300E934FFF9E849601B8C828D83E0FF8A8233
:1010F3008B83E0FEEF6E60D6EFFAEEC39AFA95E0CB
:10110300FB80047A007B007F010203DD74F7120386
:1011130077EAF8EBF9740912036DE0FEA3E0FF80B0
:10112300188C828D83E088828983F0A3A882A983A7
:101133008C828D83A3AC82AD838E088F09E508244E
:10114300FF1EE50934FFFFE508450970D47F02025D
:1011530003DD74F7120377EAF8EBF98A088B097455
:101163000912036DE0FEA3E0FFC3EA9CEB9D405A26
:10117300EC2EF582ED3FF583C3E5829508E5839573
:10118300094047EA2EFAEB3FFBAC82AD831211DB39
:10119300603DEC24FF1CED34FFFDEA24FF1AEB3421
:1011A300FFFB8C828D83E08A828B83F080DF8C82CD
:1011B3008D83E08A828B83F08C828D83A3AC82AD96
:1011C300838A828B83A3AA82AB831211DB70DFE84D
:1011D300FAE9FB7F020203DD8E088F09E50824FF8D
:1011E3001EE50934FFFFE508450922C082C0838557
:1011F3001082851183E0F8A3E0F9E84960128A823E
:101203008B83ECF0A3E824FF18E934FFF94870F26C
:10121300D083D08222C082C0838A828B838001A341
:10122300E070FCE582C39AFAE5839BFBD083D0820E
:011233002298
:04000005000000C730
:00000001FF
