:020000040000FA
:030000000200C734
:03002B0002059E2D
:03007B0002056615
:10008300020B5700000080FBE490F10078D6790161
:100093008002F0A3D8FCD9FA7AD57BF19000D67808
:1000A3005179018015E493A3AD82AE838A828B8359
:1000B300F0A3AA82AB838D828E83D8E9D9E7120697
:1000C300DA12008675D0007581BF7510007511F1C5
:1000D30002008B060606060606040707070707073E
:1000E300040000DFBE000720425455524E4F4E5FBE
:1000F300005455524E4F4646005354415455535F96
:100103000041434B5F00EBF1F3F1FBF103F2FFFF1F
:10011300FFFF0032506EFF000000050000000A00E0
:10012300000003080808EAC0E0EBC0E086F0E7A49B
:10013300FA180986F0E7A42AFA180986F0E7A42A30
:10014300FA180986F0E7A42AFA1986F0E7A4FBE572
:10015300F02AFA190886F0E7A42BFBE5F03AFA191E
:100163000886F0E7A42BFBE5F03AFA18180986F0A5
:10017300E7A4C5F02BFBE43AFA1908E7C5F0C6A4D7
:1001830026F6E5F03BFBE43AFA1886F0E7A4F6E539
:10019300F00826F6E43B08F6E43A08F6D0E0FBD094
:1001A300E0FA22E4CFC0E0E4CEC0E0E4CDC0E0E476
:1001B300CCC0E075F020E626F608E633F608E63311
:1001C300F608E633F6181818EC33FCED33FDEE337E
:1001D300FEEF33FFC3EC9709ED9709EE9709EF970D
:1001E300191919400FFFEC97FC09ED97FD09EE97DC
:1001F300FE191906D5F0BFECF709EDF709EEF7097B
:10020300EFF7191919D0E0FCD0E0FDD0E0FED0E003
:10021300FF226017080808C6A2E713C618C613C64C
:1002230018C613C618C613C6D5E0E922E026F60899
:10023300A3E036F608A3E036F608A3E036F622E09C
:10024300F608A3E0F608A3E0F608A3E0F622E6F03A
:1002530008A3E6F008A3E6F008A3E6F022CAC0E08C
:10026300E6F0A308DAFAD0E0FA22CAC0E0E0A3C5B8
:1002730082CCC582C583CDC583F0A3C582CCC5829C
:10028300C583CDC583DAE6D0E0CA22C3E498F8E497
:1002930099F91202CF8026C3E49AFAE49BFBE92082
:1002A300E7E91202CFE498F8E499F922C3E498F855
:1002B300E499F91202CFE498F8E499F9C3E49AFABD
:1002C300E49BFB22EB20E7CFE920E7E0B90010BB7A
:1002D3000008E88AF084F8AAF022E4FBC8FA22EBCB
:1002E30070227B10C833C8C933C9335007C39AC3BC
:1002F300DBF280069A50012ADBEAC833F4C8C9331B
:10030300F4C9FA2275F008E4C833C8C933C933C93C
:100313009AC99B5004C92AC93BD5F0ECFBC833F4F6
:10032300C8E4C9FA22600C08C6C313C618C613C6AC
:10033300D5E0F422251010AF08F510400C151180FC
:1003430008F51040021511D2AF2200C0D0251010BD
:10035300AF08F510500C05118008F5105002051177
:10036300D2AFD0D0222510F58210AF08F510400C83
:1003730015118008F51040021511D2AF85118322A3
:100383002510F582E43511F583222510C582C0E0DE
:10039300E51134FFC583C0E0E510C3958224F9104D
:1003A300AF088583118582108008858311858210AB
:1003B300D2AFCEF0A3E520F0A37808E608F0A3DEE1
:1003C300FAEFF0A3E58124FBF8E608F0A3E608F0D2
:1003D300A30808E608F0A3E608F0A315811581D069
:1003E300E0FED0E0F815811581E8C0E0EEC0E02220
:1003F300851183851082E0A3FEE0A3F5207808E051
:10040300A3F608DFFAE0A3FFE0A3C0E0E0A3C0E0A7
:10041300E0A3C0E0E0A3C0E010AF088582108583AD
:10042300118008858210858311D2AFD083D08222B8
:10043300C0D02510C582C0E0E51134FFC583C0E0FC
:10044300E510C3958224F310AF08858311858210CC
:100453008008858311858210D2AFC8F0A3E9F0A389
:10046300EAF0A3EBF0A37908E709F0A3D8FAECF0DC
:10047300A3EDF0A3EEF0A3EFF0A3D0E0F0A3D0E060
:10048300F0A3D0E0F0A3E520F0A3E5F0F0A32285EC
:100493001183851082E0C0E0A3E0F9A3E0FAA3E0B2
:1004A300FBA37808E0F608A3DFFAE0FCA3E0FDA3D2
:1004B300E0FEA3E0FFA3E0C0E0A3E0C0E0A3E0F51B
:1004C300D0A3E0F520A3E0A3F5F010AF08858311D6
:1004D3008582108008858311858210D2AFD082D0A7
:1004E30083D0E0F8D0E03274028000C0E0F404125C
:1004F3000368D0E012026022C082C08374FE12033C
:100503003712052E12055485108285118374AAF0C3
:10051300A37400F0851082851183E07004C2AF805C
:10052300FE740212034DD083D082222275F00DEAAD
:10053300A4F853CBEFC2D843CB0488CDE5CB54FC0E
:100543004402F5CB43CB10A2D850FC53CBEFC2D817
:100553002212055A02056543FE0143FE02C290C200
:10056300912222C0E0C0D0C082C083C2AF740465B0
:100573008A700690F1007401F07408658A70069021
:10058300F1007402F0758A00C2EB539AEF53BEFC7C
:10059300D2AFD083D082D0D0D0E032C0D0C2AFC2ED
:1005A300C775A102C2AD53BEFCD2AFD0D032C08258
:1005B300C0837402696005740369706FADD5ACD4F0
:1005C300A8D643D68174026970147AD57BF1E4CB43
:1005D300FAEA90F1E3F090F1E474D5F080127ADC5A
:1005E3007BF1E4CBFAEA90F1E3F090F1E474DCF010
:1005F3007AE37BF1E4CBFAEAF5D575D4E375D6015A
:10060300AAA5E5A56A60FB43C702740449F5BE00C9
:100613000000E5BE5403600875D70100438701005D
:1006230053C7FD8DD58CD488D68025740169701984
:10063300A8A5E5A56860FBE942BE000000E5BE543D
:1006430003600D438701008007E9700443870100BD
:10065300D083D0822274F612038D89098A0AECFEB4
:10066300EDFF120DB4120C43539AFEC2AF53BEFBFF
:10067300E5BEA2E550FA75C6C974C965C670FA43EA
:10068300BE047403550A2404F5A285A508E5A565EF
:100693000860FA85A508E5A5650860FAEEF8EFF9A4
:1006A300E4C9F8E8F5A4EEF5A3C2C775A110D2AD6D
:1006B300D2AFA9091205B153BEFBE5BEA2E650FABB
:1006C30075C689748965C670FA43BE04120C6A4301
:1006D3009A017F030203F31204FB7E007F00C3EE43
:1006E3009403EF94005048EEF8EFF9E875F002A494
:1006F300C8AAF075F000A42AFA75F002E9A42AF951
:10070300740828F58274F239F583E0FAA3E0FB124A
:1007130013628A088B0974076508700474006509FD
:100723006006D290D29180FE0EEE70B20F80AF12AF
:1007330007F2120C6A7900120ED0120D6BD290D20E
:10074300917AE87B03120E24C290C2911211698040
:10075300FE74F112038D8A0E8B0F8C0A8D0BC3E589
:100763000A9409E50B940050047903806775080324
:100773007E007F00C3EE9403EF94005055750C0781
:10078300750D00780C1204EAAC0EAD0FEEF8EFF91C
:10079300E875F002A4C8AAF075F000A42AFA75F06F
:1007A30002E9A42AF9740828F58274F239F583E082
:1007B300FAA3E0FB12120B740212034D8A0C8B0D89
:1007C300E50C450D7005EEF50880070EEE70A50FDC
:1007D30080A2A9087F080203F3C082C0837A027B48
:1007E300F1120B4290F1017401F0D083D082227494
:1007F300F112038D74F412033775084075090078FC
:10080300081204EA7C007D007A437BF112133874EA
:100813000212034D53BEFBE5BEA2E650FA53C6BF18
:1008230043BE04788779F1E4C9F8E8F5D575D48730
:1008330090DF13743CF090DF147414F090DF0274B3
:100843003DF090DF047405F090DF2E74C0F090DF6C
:10085300257409F090DF077406F090DF087400F048
:1008630090DF097421F090DF0A7465F090DF0B7458
:100873006AF090DF0C74F6F090DF0D7483F090DF74
:100883000E7413F090DF0F7422F090DF1074F8F001
:1008930090DF117415F090DF157416F090DF167465
:1008A3006CF090DF177403F090DF187440F090DF62
:1008B300197491F090DF1A7456F090DF1B7410F0E6
:1008C30090DF1C74E9F090DF1D742AF090DF1E7432
:1008D30000F090DF1F741FF090DF237488F090DF27
:1008E300247431F090F1427402F07900120ED07E3C
:1008F300007F0075E10275081475090590DF3CE07F
:10090300545070237A407B00120DDAE50824C0F5B9
:1009130008E50934FFF509C3E5089401E5099400E6
:10092300A2D265D03350D57800E8C39410501AEEA4
:100933002EFEEF33FF90DF3AE0A2E0E433FA7B00D0
:10094300EE4AFEEF4BFF0880E074804EFE74004FCA
:10095300FFEEF5BCEEF8EFF9E4C9F8E8F5BC120DCB
:10096300918510828511837483F0A37401F074025E
:100973001203837416F0A37400F08510828511832B
:10098300E0F50CA3E0F50DE4F50EF50F75088075A1
:1009930009BA750A8C750B017402120383E0F8A37C
:1009A300E0F9E87808120215780C79081201267428
:1009B30008120383780C1202517404120383740027
:1009C300F0A37473F0A37455F0A37400F0740412CD
:1009D300038378081202427408120383780C12020C
:1009E300427808790C1201A690F21C780812022FA3
:1009F30090F220780C1202427808790C1201A6E5D5
:100A0300082432F8E43509F990F183E8F0A3E9F01A
:100A130090F183E0F508A3E0F50974057808120363
:100A230028E50875F0E8A4C508A8F075F003A42824
:100A3300F875F0E8E509A428F509E50824FAF8E4CF
:100A43003509F990F185E8F0A3E9F0439A01D2AFB3
:100A5300740C12034D7F080203F374F312038D8A9F
:100A63000C8B0D890A75080090F142E06401700453
:100A7300C2AF80FE120D917582877583F1A80CA910
:100A83000DE4C9F8E8C0E0D0E0F0A3E50CC0E0D085
:100A9300E0F0A374DFF0A374D9F0A37420F0A3747F
:100AA30040F0A37413F0A37441F0E50A701143D628
:100AB3000175E103E5E9A2E450FA53E9EF806B74B1
:100AC30001650A6004C2AF80FE75090443D601754F
:100AD300E10290DF3BE0640D70F87E147F0590DF48
:100AE3003CE05450701D7A407B00120DDAEE24C0B6
:100AF300FEEF34FFFFC3EE9401EF9400A2D265D062
:100B03003350DB75E10390DF3BE0640D600BE5E9F7
:100B1300A2E450FA53E9EF8011E509600A120D913E
:100B2300120E47150980A5750801120D9190F14227
:100B3300E064037003120CAFA9087F060203F3C03D
:100B430082C08390F143EAFCEBFD744012026DD046
:100B530083D08222C0E074F112043390F142E06446
:100B6300036004C2AF80FEE5E9A2E45033E5E9A2E5
:100B7300E6502D53E9EF53E9BF539BFC120D9175DA
:100B8300083E75090078081204EA7C007D007A4368
:100B93007BF1121338740212034D120CAF020C3E98
:100BA30053E9EF539BFC90F143E02401FF750802E6
:100BB30075090078081204EAEFF87900744328FCF9
:100BC30074F139FD7A817BF112129F740212034D85
:100BD30090F143E0FE90F182E0A2E75040EEF87915
:100BE30000E82401F8500109C3E8943FE99400A206
:100BF300D265D0335027EEC3940840217A447BF169
:100C0300120F07E9701790F181E0F9120E6FE99066
:100C1300F181F090F182E0C2E7F01207DC75083E43
:100C230075090078081204EA7C007D007A437BF1A1
:100C3300121338740212034D43D6017F0202049249
:100C430074F812038D90F142E064016015A2AFE4E1
:100C530033FEC2AF120DB490F1427401F0EEA2E084
:100C630092AF7F010203F3C082C083E5C6A2E650C0
:100C730004C2AF80FE90F142E06401702390DF1C58
:100C830074E9F090DF1D742AF090DF1E7400F09079
:100C9300F1427402F075E10490DF3BE0640170F807
:100CA300D083D0822243B404E5BCF92274F7120343
:100CB3008D7E877FF18E828F8374DFF08E828F83A8
:100CC300A3AE82AF838E828F8374D9F08E828F839B
:100CD300A3AE82AF83784379F1E4C9F8E8C0E08E2C
:100CE300828F83D0E0F08E828F83A3AE82AF838E18
:100CF300828F837443F08E828F83A3AE82AF838E01
:100D0300828F837480F08E828F83A3AE82AF838EB3
:100D1300828F837440F08E828F83A3AE82AF838EE3
:100D2300828F837413F08E828F83A3AE82AF838E00
:100D3300828F837411F075D68175083E750900782A
:100D4300081204EA7C007D007A437BF112133874A5
:100D53000212034D43D601539BFC53E9EF75E102A5
:100D63004391107F020203F3C082C08390F142E0FB
:100D730064017004C2AF80FE90F142E06403600935
:100D830090F1427403F0120CAFD083D08222C08260
:100D9300C0835391EF75E10490DF3BE0640170F889
:100DA30075D68153D1FE539BFC53E9EFD083D08298
:100DB30022C082C08390F142E064017004C2AF801C
:100DC300FE90F142E064037009120D9190F14274B8
:100DD30002F0D083D0822274F312038D8A088B0928
:100DE30085080C85090D7404780C120328AE0CAF2A
:100DF3000DE50845096025A2AFE433F50AC2AF7AD1
:100E0300107B0012052FE50AA2E092AFEEF8EFF98E
:100E1300E824FFFEE934FFFFE84970DB7F060203A5
:100E2300F374F812038DEAFEEBFFEE4F60117AF4D0
:100E33007B01120DDAEE24FFFEEF34FFFF80EB7F20
:100E4300010203F374F812038D120CA8E9540F2462
:100E530001FF7E00EEC39F500E90F185E0FAA3E000
:100E6300FB120DDA0E80ED7F010203F374F7120318
:100E73008DE9FEEEC394804027EEF87900E8240064
:100E8300F8E934FFF97A027B001202C7880889095E
:100E9300E50824B7F8E50934FFF9E8FCE9FD801417
:100EA30075F002EE84F87900E824B7F8E934FFF925
:100EB300E8FCE9FDC3EC9480ED94FFA2D265D03346
:100EC30050047C807DFFECF97F020203F374F81277
:100ED300038DE9FEEEC394044004C2AF80FE120DFD
:100EE30091EEF87900741428F58274F239F583E0F1
:100EF30090DF06F090F142E064037003120CAF7FC1
:100F0300010203F374F712038D90F18FE0700479FB
:100F130000805F7C0078007D00EDC394045043EDB6
:100F2300F508750900EA2508F582EB3509F583E034
:100F3300FEEDF50875090074182508F58274F2357D
:100F430009F583E06E70010CEDF508750900741066
:100F53002508F58274F23509F583E06E7001080DFA
:100F630080B7740468600574046C700479008002AF
:100F730079017F020203F374F312038D120DB4900F
:100F8300F1017400F090F102E024F8F50A75080B02
:100F93007509F1E50AFC7D00AA08AB09120754E9BB
:100FA30090F224F090F224E064037008120D6B7940
:100FB30000021047850882850983A3A3A3A3A3A3E3
:100FC300A3E090F1D0F0850882850983A3A3A3A3AE
:100FD300A3A3A3A3E090F1D2F090F190740EF07E5E
:100FE300997FF1750C04750D00780C1204EA90F2E8
:100FF3000EE0FCA3E0FDEEFAEFFB121259740212AD
:10100300034D90F1D0E0C0E08E828F83A3A3A3A30E
:10101300D0E0F090F1D3E0F8A3E0F9E8C0E08E82ED
:101023008F83A3A3A3A3A3D0E0F079017A907BF1EC
:10103300120A5DE9D2907AFA7B00120E24C2901252
:101043000D6B79017F060203F3C082C08390F1D058
:10105300E0F890F1D1E068606D90F224E0701C90AC
:10106300F1D2E064317006D283C282803090F1D233
:10107300E064327028D284C281802290F224E0643A
:1010830001704390F1D2E064317006C283D2828052
:101093000C90F1D2E064327004C284D2817AB87BBE
:1010A3000B120E2490F1D2E064317006C283C28227
:1010B300800C90F1D2E064327004C284C28190F15A
:1010C300D0E090F1D1F0D083D082227C707D177A6A
:1010D300017902120658020D6BC082C08343B443E8
:1010E300E5B4A2E750FAE5BAF87900E854F0F8E974
:1010F3005400F990F1D3E8F0A3E9F0A9BBE9F9E4CE
:10110300F890F1D3E048F0A3E049F090F1D3E05434
:10111300FFF0A3E0540FF090F1D3E0F8A3E0F9E877
:1011230075F006A4C8AAF075F000A42AFA75F006B3
:10113300E9A42AF97A647B001202CF90F1D3E8F094
:10114300A3E9F0D083D0822243FD0843FD0443FD8D
:101153001043FD02C283C282C284C28143F2804330
:10116300B43375B5B72274F112038D12114B1210FB
:10117300DC120D6B750A00750B00750E00750F0000
:101183007508007509007E007F0090F101E060049E
:10119300120F7AE9050AE50A7002050BA80AA90BE2
:1011A3007A007BFF1202CF8A0C8B0DE50C450D7084
:1011B30004D2F08002C2F0A2F0E433F5087509000E
:1011C300E508450960C490F224E064036009121045
:1011D3004C90F2247403F01210CE750800750900C8
:1011E300050EE50E7002050FE50E541F7004D2F0D4
:1011F3008002C2F0A2F0E433FE7F00EE4F608B1258
:1012030010DC7E007F00808274F812038D74081254
:101213000383E0F8A3E08015A3AA82AB838C828DBD
:1012230083A3AC82AD83E824FF18E934FFF9E849CE
:10123300601B8C828D83E0FF8A828B83E0FEEF6EDE
:1012430060D6EFFAEEC39AFA95E0FB80047A007B4E
:10125300007F010203F374F712038DEAF8EBF974CC
:1012630009120383E0FEA3E0FF80188C828D83E0E4
:1012730088828983F0A3A882A9838C828D83A3ACFF
:1012830082AD838E088F09E50824FF1EE50934FF2C
:10129300FFE508450970D47F020203F374F71203D4
:1012A3008DEAF8EBF98A088B097409120383E0FECF
:1012B300A3E0FFC3EA9CEB9D405AEC2EF582ED3F81
:1012C300F583C3E5829508E58395094047EA2EFA3D
:1012D300EB3FFBAC82AD83121325603DEC24FF1C76
:1012E300ED34FFFDEA24FF1AEB34FFFB8C828D8380
:1012F300E08A828B83F080DF8C828D83E08A828B0D
:1013030083F08C828D83A3AC82AD838A828B83A38B
:10131300AA82AB8312132570DFE8FAE9FB7F02028E
:1013230003F38E088F09E50824FF1EE50934FFFF48
:10133300E508450922C082C083851082851183E0B8
:10134300F8A3E0F9E84960128A828B83ECF0A3E802
:1013530024FF18E934FFF94870F2D083D08222C009
:1013630082C0838A828B838001A3E070FCE582C301
:0B1373009AFAE5839BFBD083D0822216
:04000005000000C730
:00000001FF
