:020000040000FA
:030000000200C734
:030013000206CC16
:03002B0002044488
:03003B000206FDBD
:03007B0002040C70
:10008300020A2500000080FBE490F1007808790261
:100093008002F0A3D8FCD9FA7A077BF29000D678D5
:1000A3003379018015E493A3AD82AE838A828B8377
:1000B300F0A3AA82AB838D828E83D8E9D9E7120796
:1000C3003E12008675D0007581BF750E00750FF165
:1000D30002008B035455524E4F4E5F005455524EFF
:1000E3004F4646005354415455535F0041434B5FC1
:1000F3000008F210F218F220F2FFFFFFFF00325067
:100103006EFF000000CAC0E0E6F0A308DAFAD0E010
:10011300FA22CAC0E0E0A3C582CCC582C583CDC59F
:1001230083F0A3C582CCC582C583CDC583DAE6D06F
:10013300E0CA22C3E498F8E499F91201778026C350
:10014300E49AFAE49BFBE920E7E9120177E498F8E3
:10015300E499F922C3E498F8E499F9120177E49851
:10016300F8E499F9C3E49AFAE49BFB22EB20E7CF86
:10017300E920E7E0B90010BB0008E88AF084F8AA98
:10018300F022E4FBC8FA22EB70227B10C833C8C903
:1001930033C9335007C39AC3DBF280069A50012A4E
:1001A300DBEAC833F4C8C933F4C9FA2275F008E4AA
:1001B300C833C8C933C933C99AC99B5004C92AC9AA
:1001C3003BD5F0ECFBC833F4C8E4C9FA22600C0851
:1001D300C6C313C618C613C6D5E0F422250E10AF46
:1001E30008F50E400C150F8008F50E4002150FD2CE
:1001F300AF2200C0D0250E10AF08F50E500C050F2E
:100203008008F50E5002050FD2AFD0D022250EF58F
:100213008210AF08F50E400C150F8008F50E400252
:10022300150FD2AF850F8322250EF582E4350FF526
:100233008322250EC582C0E0E50F34FFC583C0E0ED
:10024300E50EC3958224F910AF0885830F85820ECE
:10025300800885830F85820ED2AFCEF0A3E520F010
:10026300A37808E608F0A3DEFAEFF0A3E58124FB08
:10027300F8E608F0A3E608F0A30808E608F0A3E60A
:1002830008F0A315811581D0E0FED0E0F8158115A3
:1002930081E8C0E0EEC0E022850F83850E82E0A3F3
:1002A300FEE0A3F5207808E0A3F608DFFAE0A3FF59
:1002B300E0A3C0E0E0A3C0E0E0A3C0E0E0A3C0E0AF
:1002C30010AF0885820E85830F800885820E858393
:1002D3000FD2AFD083D08222C0D0250EC582C0E01A
:1002E300E50F34FFC583C0E0E50EC3958224F31008
:1002F300AF0885830F85820E800885830F85820E64
:10030300D2AFC8F0A3E9F0A3EAF0A3EBF0A3790816
:10031300E709F0A3D8FAECF0A3EDF0A3EEF0A3EF16
:10032300F0A3D0E0F0A3D0E0F0A3D0E0F0A3E52069
:10033300F0A3E5F0F0A322850F83850E82E0C0E0F1
:10034300A3E0F9A3E0FAA3E0FBA37808E0F608A38F
:10035300DFFAE0FCA3E0FDA3E0FEA3E0FFA3E0C01F
:10036300E0A3E0C0E0A3E0F5D0A3E0F520A3E0A381
:10037300F5F010AF0885830F85820E800885830F03
:1003830085820ED2AFD082D083D0E0F8D0E0327431
:10039300028000C0E0F404120210D0E0120108222F
:1003A300C082C08374FE1201DF1203D51203FA85E3
:1003B3000E82850F8374AAF0A3E4F0850E82850F65
:1003C30083E07004C2AF80FE74021201F5D083D0C3
:1003D30082222253CBEFC2D843CB0475F00DEAA49B
:1003E300F5CDE5CB54FC4402F5CB43CB10A2D8505A
:1003F300FC53CBEFC2D82212040002040B43FE01CC
:1004030043FE02C290C2912222C0E0C0D0C082C08B
:1004130083C2AF7404658A700690F1007401F074AE
:1004230008658A700690F1007402F0758A00C2EBC9
:10043300539AEF53BEFCD2AFD083D082D0D0D0E05A
:1004430032C2AFC2C775A102C2AD53BEFCD2AF3236
:1004530074F712023590F179E024F86406703C7564
:100463000804750900780812039290F22BE0FCA3AC
:10047300E0FD7A827BF1120D4D74021201F5EA4B15
:10048300701990F186E090F103F090F187E090F11C
:1004930002F090F101E4F079018002790002053D58
:1004A30074F712023590F1067411F0750807750997
:1004B30000780812039290F207E025E0F8E433F99C
:1004C300742528F58274F239F583E0FCA3E0FD7A04
:1004D3000F7BF1120D9B74021201F590F104E09071
:1004E300F116F090F105E090F117F0C2007E286359
:1004F300900279017A067BF1120962120B857AFA6E
:100503007B0012078D90F178E0600CE4F012045345
:10051300E96004D20080041EEE70D4120BC7A2005F
:10052300500DD2917AFA7B0012078DC2918006900A
:10053300F101E004F0800375C1007F0202029B74A5
:10054300F712023590F1561205971203927C007D43
:10055300007A467BF1120E7A74021201F580DB7485
:10056300F712023590F1771205971203927C007D02
:10057300007A577BF1120E7A74021201F578081291
:1005830003927C007D007A677BF1120E7A7402126B
:1005930001F580A3E4F0750810F50978082274F7D3
:1005A30012023575081075090078081203927C67EA
:1005B3007DF17A577BF1120D9B74021201F590F1D4
:1005C30077E4F002053A74F71202357508047509E9
:1005D30000780812039290F22BE0FCA3E0FD7A6707
:1005E3007BF1120D9B74021201F590F103E090F17F
:1005F3006BF090F102E090F16CF002053DE5F154EF
:10060300FE4402F5F153FF3F43F33C53BEFBE5BE0B
:10061300A2E650FA53C6B8E5C6A2E640FA43BE04C2
:10062300E586547F4420F586E5C575C520C28BC297
:10063300E91205421205C91205A1D2AA439A04D2AE
:10064300AF75C10022C082C083E586A2E040459019
:10065300F156E0603F640970357C097D007A467B82
:10066300F11207B8E990F207F0600814600514600E
:1006730012801B90F14DE090F104F090F14EE09068
:10068300F105F06390011205C91205A1800312055B
:1006930062120542D083D0822274F7120235120609
:1006A300007508007E0090F207E0600464017006A4
:1006B3001204A37403F00508E508540F70E80EEE66
:1006C300540F70E212064880DDC0E074F21202DBC0
:1006D300C28BE5C1C0E090F156E0F8744628F5827C
:1006E300E434F1F583D0E0F090F156E004F06410C7
:1006F30070031205427F0102033AC0E0C0D0E8C094
:10070300E0E9C0E0C082C083C2E990F177E0641001
:10071300700575C1008015E0F8745728F582E4343C
:10072300F1F583E0F5C190F177E004F0D083D08256
:10073300D0E0F9D0E0F8D0D0D0E0321203A37E00AD
:100743007F0012080C120EA474076A7001EB600696
:10075300D290D29180FE0EEE70010FC39403EF94FA
:100763000040DF12083A120AF27900120CC0120B91
:1007730085D290D2917AE87B03120C2BC290C2915E
:1007830012069C80FED083D0822274F8120235EACE
:10079300FEEB80177508427A0F7B001203D615080B
:1007A300E50870F3EE24FF1EEF34FFFFEE4F70E415
:1007B3007F0102029B74F31202358A088B09C3EC92
:1007C3009409ED9400500479038039750A037E007F
:1007D3007F00750C07750D00780C120392AC08AD01
:1007E3000912080C120D4D74021201F5EA4B700543
:1007F300EEF50A800D0EEE70010FC39403EF940023
:1008030040D0A90A7F0602029BEEF8EFF9E828F828
:10081300E933F9742528F58274F239F583E0FAA3F4
:10082300E0FB22C082C0837A797BF1120A1290F135
:10083300787401F002078874F71202357508407561
:1008430009007808120392120AE41201F553BEFB61
:10085300E5BEA2E650FA53C6BF43BE0474F1F5D514
:1008630074FEF5D490DF13743CF0A37414F090DF9E
:1008730002743DF090DF047405F090DF2E74C0F035
:1008830090DF257409F090DF077406F0A3E4F0A36A
:100893007421F0A37465F0A3746AF0A374F6F0A353
:1008A3007483F0A37413F0A37422F0A374F8F0A379
:1008B3007415F090DF1504F0A3746CF0A37403F0C7
:1008C300A37440F0A37491F0A37456F0A37410F0D2
:1008D300A3120B22A3741FF090DF237488F0A37478
:1008E30031F090F1B97402F07900120CC07E007FF0
:1008F3000075E10275081475090590DF3CE054505A
:10090300701F7A407B00120BE4E50824C0F508E56C
:100913000934FFF509C3E5089401E509120C845075
:10092300D97810EE25E0FEEF33FF90DF3AE0A2E046
:10093300E433FAEE4AFED8EB74804EF5BCEFF5BC17
:10094300120BA290F1FA7423F0A37401F090F1FC5E
:100953007422F0A37424F0439A01D2AF020C0474FE
:10096300F6120235EAFEEBFF890975080090F1B92A
:10097300E064017004C2AF80FE120BA2EF90F1FE9F
:10098300F0EEA3F0A374DFF0A374D9F0A3742012E4
:100993000B7A7441F0E509700E43D60175E103E566
:1009A300E9A2E450FA8047740165096004C2AF808C
:1009B300FE750A048008120BA2120C4B150A43D6CB
:1009C3000175E10290DF3BE0640D70F87E147F0552
:1009D30090DF3CE054507005120C6C50F375E1034A
:1009E30090DF3BE0640D600BE5E9A2E450FA53E9C4
:1009F300EF8007E50A70BF750801120BA290F1B9E9
:100A0300E064037003120B34A9087F0302029BC046
:100A130082C08390F1BAEAFCEBFD74401201150227
:100A23000BC2C0E074F11202DB90F1B9E064036021
:100A330004C2AF80FEE5E9A2E45028E5E9A2E6504E
:100A43002253E9EF53E9BF539BFC120BA275083EF7
:100A53007509007808120392120AE41201F5120BC9
:100A630034807953E9EF539BFC75080275090078CC
:100A73000812039290F1BAE004F874BA28FCE43443
:100A8300F1FD7AF87BF1120DE174021201F5E0FA3F
:100A930090F1F9E0A2E75033EA790024015001090B
:100AA300C3943FE9120C845022EAC39408401C7A91
:100AB300BB7BF1120CF0E9701290F1F8E0F9120C23
:100AC3008CE9F0A3E0C2E7F012082675083E780827
:100AD300120392120AE41201F543D6017F020203C4
:100AE3003A7C007D007ABA7BF1120E7A740222C03E
:100AF30082C083E5C6A2E65004C2AF80FE90F1B97E
:100B0300E06401701790DF1C120B2290F1B974029C
:100B1300F075E10490DF3BE0640170F8020BC274EE
:100B2300E9F0A3742AF0A3E4F02243B404E5BCF98A
:100B33002274F712023590F1FE74DFF0A374D9F03A
:100B430074F1A3F074BAA3F0A37480120B7A741136
:100B5300F075D68175083E75090078081203921264
:100B63000AE41201F543D601539BFC53E9EF75E107
:100B730002439110020C04F0A37440F0A37413F029
:100B8300A322C082C08390F1B9E064017004C2AFB4
:100B930080FEE0640360067403F0120B348020C00F
:100BA30082C0835391EF75E10490DF3BE0640170F1
:100BB300F875D68153D1FE539BFC53E9EF8000D0E7
:100BC30083D08222C082C08390F1B9E064017004B3
:100BD300C2AF80FEE064037006120BA27402F080C1
:100BE300DE74F71202358A088B097404780812013F
:100BF300D0AE08AF09EA4B6008120C18120C09704A
:100C0300F87F0202029BEEF8EFF9E824FF1EE934B5
:100C1300FFFFE8492285A808C2AF7A107B001203C0
:100C2300D6E508A2E792AF2274F8120235EAFEEB8A
:100C3300800E7AF47B01120BE4EE24FF1EEF34FFE7
:100C4300FFEE4F70ED020C6774F8120235120B2D94
:100C5300E9540F04FE90F1FCE0FAA3E0FB120BE46D
:100C6300DEF380007F0102029B7A407B00120BE4DB
:100C7300EE24C0FEEF34FFFFC3EE9401EF120C84A9
:100C8300229400A2D265D03322E9C39480E94011B3
:100C9300F879FF7A027B0012016FE824B7F8E98044
:100CA30006C31324B7F8E434FFF9C3E89480E99446
:100CB300FFA2D265D03350027880E8F92274F8128B
:100CC3000235E9FEC394044004C2AF80FE120BA2B6
:100CD30074312EF582E434F2F583E090DF06F09070
:100CE300F1B9E064037003120B34020C6774F81259
:100CF300023590F206E060327E007D007C00120D2A
:100D030041FF120D36E06F70010E742D28F582E459
:100D130034F2F583E06F70010D0CECC3940440DEF4
:100D230074046D600574046E7004790080027901A7
:100D3300020C67743528F582E434F2F58322ECF86B
:100D4300EA28F582E43BF583E02274F81202357455
:100D53000812022BE0F8A3E08015A3AA82AB838CD0
:100D6300828D83A3AC82AD83E824FF18E934FFF9B5
:100D7300E849601B8C828D83E0FF8A828B83E0FECF
:100D8300EF6E60D6EFFAEEC39AFA95E0FB80047A31
:100D9300007B007F0102029B74F7120235EAF8EB35
:100DA300F9740912022BE0FEA3E0FF80188C828DF8
:100DB30083E088828983F0A3A882A9838C828D83B0
:100DC300A3AC82AD838E088F09E50824FF1EE509D5
:100DD30034FFFFE508450970D47F0202029B74F7D4
:100DE300120235EAF8EBF98A088B09740912022B0F
:100DF300E0FEA3E0FFC3EA9CEB9D405AEC2EF58294
:100E0300ED3FF583C3E5829508E58395094047EAFD
:100E13002EFAEB3FFBAC82AD83120E67603DEC24F0
:100E2300FF1CED34FFFDEA24FF1AEB34FFFB8C8239
:100E33008D83E08A828B83F080DF8C828D83E08ACE
:100E4300828B83F08C828D83A3AC82AD838A828B69
:100E530083A3AA82AB83120E6770DFE8FAE9FB7FF4
:100E63000202029B8E088F09E50824FF1EE5093460
:100E7300FFFFE508450922C082C083850E82850FE6
:100E830083E0F8A3E0F9E84960128A828B83ECF0EF
:100E9300A3E824FF18E934FFF94870F2D083D08225
:100EA30022C082C0838A828B838001A3E070FCE529
:0D0EB30082C39AFAE5839BFBD083D0822294
:04000005000000C730
:00000001FF
